:02000002B0004C
:1040000000400B004E7B0B00000006000C00050278
:084010000401D41700000000B8
:04401800E8750B003C
:1040200081F0004102E000BF83F0004330B54FEA69
:1040300041044FEA430594EA050F08BF90EA020FD6
:104040001FBF54EA000C55EA020C7FEA645C7FEA69
:10405000655C00F0E2804FEA5454D4EB5555B8BF8C
:104060006D420CDD2C4480EA020281EA030382EAFD
:10407000000083EA010180EA020281EA0303362D8F
:1040800088BF30BD11F0004F4FEA01314FF4801C62
:104090004CEA113102D0404261EB410113F0004F74
:1040A0004FEA03334CEA133302D0524263EB43032B
:1040B00094EA050F00F0A780A4F10104D5F1200EC9
:1040C0000DDB02FA0EFC22FA05F2801841F1000124
:1040D00003FA0EF2801843FA05F359410EE0A5F1F8
:1040E00020050EF1200E012A03FA0EFC28BF4CF029
:1040F000020C43FA05F3C01851EBE37101F00045DF
:1041000007D54FF0000EDCF1000C7EEB00006EEBEB
:104110000101B1F5801F1BD3B1F5001F0CD3490875
:104120005FEA30004FEA3C0C04F101044FEA4452CC
:1041300012F5800F80F09A80BCF1004F08BF5FEA53
:10414000500C50F1000041EB045141EA050130BD33
:104150005FEA4C0C404141EB0101013C28BFB1F545
:10416000801FE9D291F0000F04BF01460020B1FA90
:1041700081F308BF2033A3F10B03B3F120020CDA63
:104180000C3208DD02F1140CC2F10C0201FA0CF041
:1041900021FA02F10CE002F11402D8BFC2F1200CA6
:1041A00001FA02F120FA0CFCDCBF41EA0C0190405C
:1041B000E41AA2BF01EB0451294330BD6FEA0404A5
:1041C0001F3C1CDA0C340EDC04F11404C4F1200290
:1041D00020FA04F001FA02F340EA030021FA04F3A2
:1041E00045EA030130BDC4F10C04C4F1200220FAF9
:1041F00002F001FA04F340EA0300294630BD21FA37
:1042000004F0294630BD94F0000F83F4801306BFFC
:1042100081F480110134013D4EE77FEA645C18BFF0
:104220007FEA655C29D094EA050F08BF90EA020F87
:1042300005D054EA000C04BF1946104630BD91EA7F
:10424000030F1EBF0021002030BD5FEA545C05D182
:104250004000494128BF41F0004130BD14F58004C1
:104260003CBF01F5801130BD01F0004545F0FE4135
:1042700041F470014FF0000030BD7FEA645C1ABF6A
:10428000194610467FEA655C1CBF0B46024650EAA1
:10429000013406BF52EA033591EA030F41F40021CD
:1042A00030BD00BF90F0000F04BF0021704730B553
:1042B0004FF4806404F132044FF000054FF0000128
:1042C00050E700BF90F0000F04BF0021704730B5E9
:1042D0004FF4806404F1320410F0004548BF4042BE
:1042E0004FF000013EE700BF42004FEAE2014FEA13
:1042F00031014FEA02701FBF12F07F4393F07F4FEE
:1043000081F06051704732F07F4208BF704793F0F0
:104310007F4F04BF41F40021704730B54FF4607403
:1043200001F0004521F000411CE700BF50EA010206
:1043300008BF704730B54FF000050AE050EA0102AF
:1043400008BF704730B511F0004502D5404261EB1F
:1043500041014FF4806404F132045FEA915C3FF460
:10436000D8AE4FF003025FEADC0C18BF03325FEAFD
:10437000DC0C18BF033202EBDC02C2F1200300FAAE
:1043800003FC20FA02F001FA03FE40EA0E0021FAD3
:1043900002F11444BDE600BF70B54FF0FF0C4CF4C1
:1043A000E06C1CEA11541DBF1CEA135594EA0C0F73
:1043B00095EA0C0F00F0DEF82C4481EA030621EAAE
:1043C0004C5123EA4C5350EA013518BF52EA0335E9
:1043D00041F4801143F4801338D0A0FB02CE4FF09B
:1043E0000005E1FB02E506F00042E0FB03E54FF0CB
:1043F0000006E1FB03569CF0000F18BF4EF0010EC3
:10440000A4F1FF04B6F5007F64F5407404D25FEABE
:104410004E0E6D4146EB060642EAC62141EA555171
:104420004FEAC52040EA5E504FEACE2EB4F1FD0CB3
:1044300088BFBCF5E06F1ED8BEF1004F08BF5FEA31
:10444000500E50F1000041EB045170BD06F00046E3
:1044500046EA010140EA020081EA0301B4EB5C0490
:10446000C2BFD4EB0C0541EA045170BD41F4801188
:104470004FF0000E013C00F3AB8014F1360FDEBFAD
:10448000002001F0004170BDC4F10004203C35DA89
:104490000C341BDC04F11404C4F1200500FA05F30C
:1044A00020FA04F001FA05F240EA020001F00042AD
:1044B00021F0004110EBD37021FA04F642EB060123
:1044C0005EEA430E08BF20EAD37070BDC4F10C044D
:1044D000C4F1200500FA04F320FA05F001FA04F211
:1044E00040EA020001F0004110EBD37041F10001FD
:1044F0005EEA430E08BF20EAD37070BDC4F1200508
:1045000000FA05F24EEA020E20FA04F301FA05F26F
:1045100043EA020321FA04F001F0004121FA04F217
:1045200020EA020000EBD3705EEA430E08BF20EAE7
:10453000D37070BD94F0000F0FD101F00046400021
:1045400041EB010111F4801F08BF013CF7D041EAA3
:10455000060195F0000F18BF704703F000465200A7
:1045600043EB030313F4801F08BF013DF7D043EA78
:104570000603704794EA0C0F0CEA135518BF95EA2E
:104580000C0F0CD050EA410618BF52EA4306D1D1B5
:1045900081EA030101F000414FF0000070BD50EAD4
:1045A000410606BF1046194652EA430619D094EA5E
:1045B0000C0F02D150EA013613D195EA0C0F05D148
:1045C00052EA03361CBF104619460AD181EA03019C
:1045D00001F0004141F0FE4141F470014FF0000054
:1045E00070BD41F0FE4141F4780170BD70B54FF0EF
:1045F000FF0C4CF4E06C1CEA11541DBF1CEA13556F
:1046000094EA0C0F95EA0C0F00F0A7F8A4EB050450
:1046100081EA030E52EA03354FEA013100F0888047
:104620004FEA03334FF0805545EA131343EA126310
:104630004FEA022245EA111545EA10654FEA0026C5
:104640000EF000419D4208BF964244F1FD0404F57E
:10465000407402D25B084FEA3202B61A65EB0305DA
:104660005B084FEA32024FF480104FF4002CB6EB97
:10467000020E75EB030E22BFB61A754640EA0C0017
:104680005B084FEA3202B6EB020E75EB030E22BF57
:10469000B61A754640EA5C005B084FEA3202B6EB98
:1046A000020E75EB030E22BFB61A754640EA9C0057
:1046B0005B084FEA3202B6EB020E75EB030E22BF27
:1046C000B61A754640EADC0055EA060E18D04FEAE5
:1046D000051545EA16754FEA06164FEAC30343EA85
:1046E00052734FEAC2025FEA1C1CC0D111F4801F52
:1046F0000BD141EA00014FF000004FF0004CB6E74B
:1047000011F4801F04BF01430020B4F1FD0C88BFE9
:10471000BCF5E06F3FF6AFAEB5EB030C04BFB6EBF4
:10472000020C5FEA500C50F1000041EB045170BDE7
:104730000EF0004E4EEA113114EB5C04C2BFD4EB14
:104740000C0541EA045170BD41F480114FF0000E98
:10475000013C90E645EA060E8DE60CEA135594EA14
:104760000C0F08BF95EA0C0F3FF43BAF94EA0C0F17
:104770000AD150EA01347FF434AF95EA0C0F7FF48C
:1047800025AF104619462CE795EA0C0F06D152EAE0
:1047900003353FF4FDAE1046194622E750EA4106C4
:1047A00018BF52EA43067FF4C5AE50EA41047FF4D5
:1047B0000DAF52EA43057FF4EBAE12E74FF0FF3C3A
:1047C00006E000BF4FF0010C02E000BF4FF0010C0B
:1047D0004DF804CD4FEA410C7FEA6C5C4FEA430C84
:1047E00018BF7FEA6C5C1BD001B050EA410C0CBFD3
:1047F00052EA430C91EA030F02BF90EA020F002035
:10480000704710F1000F91EA030F58BF994208BF9B
:1048100090422CBFD8176FEAE37040F00100704758
:104820004FEA410C7FEA6C5C02D150EA013C07D1AF
:104830004FEA430C7FEA6C5CD6D152EA033CD3D0FA
:104840005DF8040B704700BF8446104662468C46F4
:104850001946634600E000BF01B5FFF7B7FF002827
:1048600048BF10F1000F01BD4DF808EDFFF7F4FF50
:104870000CBF012000205DF808FB00BF4DF808EDDB
:10488000FFF7EAFF34BF012000205DF808FB00BFFE
:104890004DF808EDFFF7E0FF94BF012000205DF820
:1048A00008FB00BF4DF808EDFFF7CEFF94BF0120D5
:1048B00000205DF808FB00BF4DF808EDFFF7C4FFCE
:1048C00034BF012000205DF808FB00BF4FEA410C17
:1048D0007FEA6C5C02D150EA013C0AD14FEA430CFA
:1048E0007FEA6C5C02D152EA033C02D14FF0000037
:1048F00070474FF0010070474FEA410212F5001275
:1049000015D211D56FF47873B3EB625212D94FEA16
:10491000C12343F0004343EA505311F0004F23FA00
:1049200002F018BF404270474FF00000704750EA55
:10493000013005D111F0004008BF6FF00040704712
:104940004FF00000704700BF4A0011D212F500126C
:1049500011D20DD56FF47873B3EB62520ED44FEAD7
:10496000C12343F0004343EA505323FA02F0704757
:104970004FF00000704750EA013002D14FF0FF3095
:1049800070474FF0000070474FEA4102B2F1E04338
:1049900024BFB3F5001CDCF1FE5C0DD901F0004C26
:1049A0004FEAC0024CEA5070B2F1004F40EB830076
:1049B00008BF20F00100704711F0804F21D113F1A2
:1049C0003872BCBF01F00040704741F480114FEADB
:1049D0005252C2F11802C2F1200C10FA0CF320FA64
:1049E00002F018BF40F001004FEAC1234FEAD32381
:1049F00003FA0CFC40EA0C0023FA02F34FEA4303EB
:104A0000CCE77FEA625307D150EA01331EBF4FF073
:104A1000FE4040F44000704701F0004040F0FE408E
:104A200040F40000704700BF53B94AB9002908BFDD
:104A300000281CBF4FF0FF314FF0FF3000F0C6B927
:104A4000ADF1080C6DE904CE00F058F8DDF804E093
:104A5000DDE9022304B0704707EE900AF5EEC07A54
:104A6000F1EE10FA01D400F00BB8F1EE677A08B558
:104A700017EE900A00F004F8404261EB410108BDD6
:104A8000D0B5FFF731FC0C4B002206460F46FFF76E
:104A900083FCFFF759FF0446FFF704FC074B002295
:104AA000FFF77AFC02460B4630463946FFF7BCFA60
:104AB000FFF74AFF2146D0BD0000F03D0000F04165
:104AC000D0B50C4B002206460F46FFF765FCFFF7FA
:104AD0003BFF0446FFF7E6FB074B0022FFF75CFCB9
:104AE00002460B4630463946FFF79EFAFFF72CFF89
:104AF0002146D0BD0000F03D0000F0412DE9F04717
:104B0000089D04468E46002B4DD18A42944669D9B1
:104B1000B2FA82F252B101FA02F3C2F1200120FA94
:104B200001F10CFA02FC41EA030E94404FEA1C48E2
:104B3000210CBEFBF8F61FFA8CF708FB16E341EADE
:104B4000034306FB07F199420AD91CEB030306F164
:104B5000FF3080F01F81994240F21C81023E634485
:104B60005B1AA4B2B3FBF8F008FB103344EA034429
:104B700000FB07F7A7420AD91CEB040400F1FF333E
:104B800080F00A81A74240F207816444023840EA7B
:104B90000640E41B00261DB1D4400023C5E90043B4
:104BA0003146BDE8F0878B4209D9002D00F0EF8037
:104BB0000026C5E9000130463146BDE8F087B3FA6A
:104BC00083F6002E4AD18B4202D3824200F2F98052
:104BD000841A61EB030301209E46002DE0D0C5E955
:104BE000004EDDE702B9FFDEB2FA82F2002A40F0A1
:104BF0009280A1EB0C014FEA1C471FFA8CFE0126A4
:104C0000200CB1FBF7F307FB131140EA01410EFB47
:104C100003F0884208D91CEB010103F1FF3802D2EE
:104C2000884200F2CB804346091AA4B2B1FBF7F0E8
:104C300007FB101144EA01440EFB00FEA64508D90B
:104C40001CEB040400F1FF3102D2A64500F2BB8048
:104C50000846A4EB0E0440EA03409CE7C6F1200797
:104C6000B34022FA07FC4CEA030C20FA07F401FADD
:104C700006F31C43F9404FEA1C4900FA06F3B1FB66
:104C8000F9F8200C1FFA8CFE09FB181140EA0141CB
:104C900008FB0EF0884202FA06F20BD91CEB010168
:104CA00008F1FF3A80F08880884240F28580A8F1C0
:104CB00002086144091AA4B2B1FBF9F009FB101112
:104CC00044EA014100FB0EFE8E4508D91CEB0101B0
:104CD00000F1FF346CD28E456AD90238614440EA53
:104CE0000840A0FB0294A1EB0E01A142C846A646D3
:104CF00056D353D05DB1B3EB080261EB0E0101FA5C
:104D000007F722FA06F3F1401F43C5E900710026B8
:104D10003146BDE8F087C2F12003D8400CFA02FC0E
:104D200021FA03F3914001434FEA1C471FFA8CFE1E
:104D3000B3FBF7F007FB10360B0C43EA064300FB0E
:104D40000EF69E4204FA02F408D91CEB030300F1AC
:104D5000FF382FD29E422DD9023863449B1B89B263
:104D6000B3FBF7F607FB163341EA034106FB0EF3EC
:104D70008B4208D91CEB010106F1FF3816D28B4299
:104D800014D9023E6144C91A46EA004638E72E4665
:104D9000284605E70646E3E61846F8E64B45A9D25D
:104DA000B9EB020864EB0C0E0138A3E74646EAE7CC
:104DB000204694E74046D1E7D0467BE7023B61447A
:104DC00032E7304609E76444023842E7704700BFE3
:104DD000034613F8012B002AFBD1181A013870473B
:104DE00009480A49884208B505D0094A824202D0DA
:104DF000121A02F017FB0748074A0021121A02F0A4
:104E000039FB014808BD00BFB0E50320A87A0B00BC
:104E100028E6032028E60320F8E7032070B5074EB4
:104E2000074C02F03FFAA41BA4080025AC4200D1B5
:104E300070BD56F8043B98470135F7E7587A0B00E8
:104E40007C7A0B0000F01CB808B500F0C1FBBDE88F
:104E5000084002F0DFB901F0DFB801F0DDB801F081
:104E6000E3B80078B0FA80F040097047012303707E
:104E70007047704700224068114601F075B8000085
:104E80007FB502F00FF94FF4165102F0FFF8494DCB
:104E900002F008F9484901F03AFE00231A46194683
:104EA000686801F069F800F09BFE002304461A468A
:104EB0006868194601F040F842F20F762846FFF77D
:104EC000D9FF40B900F08CFE001BB04203D864202B
:104ED00001F0E2F8F2E73748FFF7CCFFE8B102F063
:104EE000E1F8364901F013FE3549002349681A46B6
:104EF000062001F011F800F0DFFF00F071FE314DE7
:104F0000044641F2873600F0DFFF60B100F0DCFFBD
:104F1000A0B902F0C7F82C4913E002F0C3F82B49FE
:104F200001F0F5FDE9E700F05BFE001BB042EDD8B3
:104F300000F056FE286000F0B7FFE4E702F0B2F898
:104F4000234901F0E4FD00F0BFFF10B1002000F0A4
:104F5000D3FFB9EE0C0A01F091FF00231A46CDE908
:104F600000331C491C4800F0BFFF02F0E9F91B4A5E
:104F7000014657231A4800F0B3FC28B902F092F812
:104F8000184901F0C4FDFEE740F29B134FF4805234
:104F9000CDE901324FF4C873009311480323042272
:104FA0001F2100F05DFD012004B0BDE8704001F05C
:104FB000D6BD00BF20E70320FC750B000C760B006C
:104FC0009CE6032030E7032063760B001D760B0080
:104FD00049760B00734E0B0098760B00801A060082
:104FE0004CE60320AF760B0008B501F095FF064BA9
:104FF0001B68834206DC054B1B688342D4BF00203C
:10500000012008BD0020FCE7B4E50320B0E5032043
:1050100008B500F0E5FD0B4B1B68C01A47F22F5393
:1050200098420ED9FFF7E0FF58B102F03BF806496D
:1050300001F06DFD054B01221A7000F0D1FD044B0B
:10504000186008BDB8E50320E2760B003CE60320BB
:1050500088E6032008B500F037FF034B002814BF93
:10506000032204221A7008BD3CE6032010B50C464A
:1050700001F098FD204601F00FF80022104611467D
:1050800001F07DFDBDE81040642001F005B800008E
:105090002DE9F0472DED028B02F004F87A4901F07A
:1050A00036FD6421FF20FFF7E1FF784800F000FCA7
:1050B00004464FF4FA6000F0EFFF42F210739C4296
:1050C00040F3C8802046FFF7FDF86BA3D3E9002327
:1050D000FFF78CFA6E4B6F4C0022FEF7A7FFFFF72D
:1050E00053FC9FED6D7A206007EE900AF4EEC77ACC
:1050F000F1EE10FA27DD9FED697AF4EEC77AF1EE52
:1051000010FA20D501F0CEFF654901F0EDFC01F069
:10511000C9FF94ED008A824618EE100AFFF7E4F802
:1051200002460B4604460D4606460F46FFF7CEFBE9
:1051300068B15C49504601F0D7FC504601F0DBFCF9
:10514000594B02221A70BDEC028BBDE8F08725F0A6
:105150000049564B4FF0FF3220464946FFF7B6FB59
:1051600048B9524B4FF0FF3220464946FFF790FBBB
:1051700008B94F49DEE7DFED4F7AB4EEE78AF1EE8A
:1051800010FA01DD4C49D5E7DFED4C7AB4EEE78A41
:10519000F1EE10FAF6D4B5EEC08AF1EE10FA06D5AB
:1051A0002D21504601F0A4FC264605F1004734A30A
:1051B000D3E9002330463946FEF738FF0D46044652
:1051C000FFF7C2FB0646FFF76DF80B46024629467D
:1051D0002046FEF729FF0A2204460D465046314676
:1051E00001F09FFC3649504601F07EFC354B002211
:1051F00020462946FFF7D0F806460F46FFF77CFB0E
:10520000041E1BDB21460A22504601F08AFC204680
:10521000FFF758F802460B4630463946FEF704FFC2
:10522000284B0022FFF7B8F8FFF766FB041E0BDBE4
:1052300021460A22504601F074FC7EE72D2150469B
:1052400001F056FC6142DEE72D21504601F050FC92
:105250006142EEE700F0C4FC1B4B1B68C01A1B4BFD
:1052600098427FF670AF01F01DFF194901F04FFC25
:105270000D4B002266E700BF00000000009C9C4030
:105280007B14AE47E17A743FFC760B004CE60320BA
:1052900000003E4038E60320000020420000484362
:1052A00029770B0035770B003CE60320FFFFEF7FEB
:1052B00039770B00FFFF7F4F3D770B00FFFF7FCF5C
:1052C0000A760B000000244088E60320DF930400E8
:1052D00041770B002DE9F84FD0E9008993466FF034
:1052E0007043A9EB0802B3EBE20F07468A464FEA88
:1052F000E20402D1204802F089F8012C224638BF8E
:105300000122A418A1EB080531D294B39C4228BF16
:105310001C46E000FFF79FFD064673191CBFDBE942
:105320000001C3E90001002D04DD2A464146304654
:1053300002F086F8A9EB0A090835B9F1000F3544E7
:1053400004DD4A465146284602F06CF84D44B8F157
:10535000000F05D0B9684046A1EB0801FFF77FFDBB
:1053600006EBC404C7E90065BC60BDE8F88F1C46C5
:10537000CFE72646D1E700BF69770B00F7B5464B6C
:10538000464C1B68009300F02BFCD4E90132934299
:10539000019044D023B102AA12E9030083E803007C
:1053A00063680833636001F07DFE3D493D4D01F0C7
:1053B000AEFB3D484FF47A71FFF758FE3A484FF480
:1053C0007A71FFF753FE4FF47A713748FFF74EFEBC
:1053D00000F006FCD4E900160246701A40110028BD
:1053E0000B4632DD4968511AA94204D8D968511ACE
:1053F000A9421AD908339E4234D02A4F03F1080536
:10540000AE422FD06968511AB94298BFD5E9000160
:1054100005F108059CBFC3E900010833F0E76A46BF
:1054200019462046FFF756FFBDE75969511AA942B0
:1054300001D91033DFE7DF69D71BAF4203F1200149
:1054400001D91833D7E70138C9E7711A10291CD0E0
:10545000182914D0082904D159681248511A8142D8
:10546000C9D8334662689A4218BF636000F0B8FB3F
:105470000E4B18600E4B00221A7003B0F0BD596835
:105480000848511A8142B6D8083359680548511A5C
:105490008142B0D80833DFE738E6032040E6032036
:1054A00083770B00005C260500FFFF00B8E50320B2
:1054B0003CE6032070B5044600200D4600F0C8FC11
:1054C00020B1637813B900F0EFFCFAE76378BFF31B
:1054D0005B8F661C0BB9284670BD002000F0B8FC3D
:1054E00020B1337813B900F0DFFCFAE72378012B01
:1054F000F1D1207BF0E7000030B589B001F0D2FD9A
:105500002B4901F004FB2B4B062193ED000A04A864
:1055100001F03DFC284B049A1B7828498DF8003097
:1055200002A83C2300F034FF02980021FFF7C2FFDD
:10553000039C05467CB16368013B63605BB92368EB
:1055400020469B689847A368013BA3601BB923686A
:105550002046DB68984704A801F0BCFB184CF5B165
:1055600001F0A0FD174901F0D2FA4FF47A714FF41F
:105570007F40FFF77BFD4FF47A714FF47F40FFF7D8
:1055800075FD4FF47A714FF47F40FFF76FFD00F027
:1055900027FB0D4B18600023237009B030BD01F0CC
:1055A00081FD0A4901F0B3FA04232370EFE700BF3D
:1055B000B8770B0038E6032034E60320A6760B000C
:1055C0003CE60320D2770B00B8E5032000780B00FF
:1055D00070B5324D2846FFF74DFC0346D8B9024658
:1055E0000146686800F0A8FC01F05CFD2C4901F060
:1055F0008EFA00F0F5FA41F2873604462846FFF7A6
:1056000039FC40B900F0ECFA001BB04203D864202A
:1056100000F042FDF2E700F057FC034600BB2149D1
:10562000214D49680246062000F076FC00F044FC5B
:1056300001F038FD1D4901F06AFA00F0D1FA41F29B
:105640008736044600F040FC50B900F0C9FA001B50
:10565000B04205D800F0C4FA286000F025FCF1E75C
:10566000134B1B78042B18D8DFE803F003070B0F4C
:105670001300BDE87040FFF7CBBCBDE87040FFF7FA
:1056800007BDBDE87040FFF7E5BCBDE87040FFF71F
:1056900033BFBDE87040FFF771BE70BD20E7032047
:1056A0000C760B009CE6032030E7032049760B00C4
:1056B0003CE603200B4B012210B51A700A4B002464
:1056C000A2F10112C3E900449A60022000F0B0FB8D
:1056D000064B07489C60C3E90044BDE8104000F059
:1056E00009B800BF34E6032028E6032040E6032083
:1056F0004CE60320704770B50446006816460D4618
:1057000001F070F82068036831469B6898470021D3
:10571000206801F06EF820680122294601F05FF848
:10572000206803681B69984720B1206803685B699B
:105730009847C0B270BD01790422FFF7DCBF017940
:105740000622FFF7D8BF2DE9F7430446FFF7F7FF1E
:1057500005462046FFF7EFFF854200F08E80451B8F
:105760004FF057012068667948BF203501F03EF8B8
:105770002068036807219B689847206801F03DF87E
:105780006E4306EB46064FF020084FF00009002E4E
:1057900074DD202EC8BF62792068C9BF02EB4202C7
:1057A0003746B8FBF2F757433A465721F61B01F04C
:1057B00016F8002FEBDD94F8383020688DF807904C
:1057C000013303F0030384F8383003685B699847BA
:1057D0008DF80600206803685B6998478DF805001E
:1057E000206803685B69984794F838308DF80400A6
:1057F000019A0233C2F3110244F823206379012B8A
:1058000019D9206803685B6998478DF806002068FD
:1058100003685B6998478DF80500206803685B6939
:10582000984794F838308DF80400019A0633C2F393
:10583000110244F823206379022B19D920680368E8
:105840005B6998478DF80600206803685B69984794
:105850008DF80500206803685B69984794F8383034
:105860008DF80400019A0A33C2F3110244F8232090
:105870006379A3EB83031F449BE70025A8B203B021
:10588000BDE8F08370B505460E4600F0A9F9044660
:1058900000F0A6F9001BB04208D82846FFF753FFD6
:1058A000012804D0012000F0F7FBF1E7002070BDD3
:1058B00010B5FA210446FFF7E5FF20B194F838301F
:1058C000063354F8230010BD0179FF22FFF713BF00
:1058D00010B5FE2201790446FFF70DFFA07110BD3F
:1058E00037B50446084621601D46019200F048FF86
:1058F0000199206800F040FF25712046FFF7E4FF82
:10590000152805D12046FFF7E3FF012003B030BD85
:105910000020FBE770B50446006816461D4600F0FF
:1059200061FF2068036831469B68984720680368D8
:1059300029469B6898472068BDE8704000F05DBF2D
:105940000B460C220179FFF7E5BF0B460D220179CA
:10595000FFF7E0BF0B460E220179FFF7DBBF0B46D6
:1059600010220179FFF7D6BF10B504460179002354
:105970000422FFF7CFFF2179204600230522FFF7FD
:10598000C9FF217920460023BDE810400622FFF719
:10599000C1BF2DE9F0410D4617460A46017904467C
:1059A0001E46FFF7A8FE384046EA000321792A4642
:1059B0002046BDE8F041FFF7ADBF38B5BF22402318
:1059C00009210446FFF7E5FF00F00AF9054600F05B
:1059D00007F9401B63280AD8217909222046FFF7DE
:1059E0008AFE430603D5012000F056FBEFE738BDE1
:1059F0000B46F8220921FFF7CCBF0B469F220A2154
:105A0000FFF7C7BF0B46E3220A21FFF7C2BF0B46D1
:105A1000FC220A21FFF7BDBF01391346032914D820
:105A2000DFE801F002060B0EF8221121FFF7B1BFEB
:105A30001B0103F0F0038F22F7E7F8221221F5E7AC
:105A40001B0103F0F0038F22F8E770470B461F227B
:105A50000821FFF79EBF1023EF220821FFF799BF0F
:105A60002DE9F0471546DDE90879DDF828A0044660
:105A700088461E46FFF7A1FF012D49D1002120468F
:105A8000FFF7E4FF2046FFF7E6FF032E54D107217E
:105A90002046FFF7ADFFBAF5805F667151DA00214D
:105AA0002046FFF7AAFF632F58DC00212046FFF7AE
:105AB000A9FFB9F1750F71DC00212046FFF7A7FFA0
:105AC00041462046FFF73CFF41462046FFF73DFF99
:105AD00041462046FFF73EFF41462046FFF73FFF85
:105AE000012211462046FFF797FF012E0BD9022213
:105AF00011462046FFF790FF022E04D003221146E4
:105B00002046FFF789FF2046BDE8F047FFF72CBF8E
:105B1000022D01D12021B2E7042D01D14021AEE7B1
:105B2000082D01D16021AAE7102D01D18021A6E71F
:105B3000202DF3D1A021A2E7022E0CBF03210221C8
:105B4000A6E7BAF5005F01DA2021A9E7BAF5804F90
:105B500001DA4021A4E7A2D16021A1E7C72F01DC2F
:105B60000421A3E7B7F5C87F01DA08219EE7B7F55E
:105B7000487F01DA0C2199E7B7F57A7F01DA102125
:105B800094E7B7F5C86F01DA14218FE7B7F5486FCE
:105B900001DA18218AE788D11C2187E7B9F1D60FED
:105BA00001DC012189E7B9F5CD7F01DC022184E721
:105BB00040F29B1399457FF47FAF03217DE70000FE
:105BC00008B5024B1B685B6C019308BD48020300DB
:105BD00008B5024B1B685B68019308BD18020300FF
:105BE00008B5024B1B685B69019308BD18020300EE
:105BF00008B5024B1B689B6D019308BD180203009A
:105C000008B5024B1B685B6E019308BD18020300C8
:105C100008B5024B1B681B68019308BD28020300EE
:105C200008B5024B1B68DB68019308BD280203001E
:105C300008B5024B1B689B69019308BD280203004D
:105C400008B5024B1B68DB69019308BD28020300FD
:105C500008B5024B1B681B6A019308BD28020300AC
:105C600008B5024B1B685B6A019308BD280203005C
:105C700008B5024B1B689B6A019308BD280203000C
:105C800008B5024B1B68DB6A019308BD28020300BC
:105C900008B5024B1B681B6B019308BD280203006B
:105CA00008B5024B1B681B6C019308BD280203005A
:105CB00008B5024B1B681B6D019308BD2802030049
:105CC00008B5024B1B685B69019308BD64020300C1
:105CD00008B5024B1B689B68019308BD680203006E
:105CE00008B5024B1B68DB68019308BD680203001E
:105CF00008B5024B1B68DB68019308BD3C0203003A
:105D000008B5024B1B681B69019308BD3C020300E8
:105D100008B5024B1B685B69019308BD3C02030098
:105D200008B5024B1B689B69019308BD3C02030048
:105D300008B5024B1B68DB69019308BD3C020300F8
:105D400008B5024B1B689B6A019308BD3C02030027
:105D500008B5024B1B681B6C019308BD3C02030095
:105D600008B5024B1B681B68019308BD4C02030079
:105D700008B5024B1B685B68019308BD4C02030029
:105D800008B5024B1B681B69019308BD4C02030058
:105D900008B5024B1B685B69019308BD4C02030008
:105DA00008B5024B1B689B69019308BD4C020300B8
:105DB00008B5024B1B68DB69019308BD4C02030068
:105DC00008B5024B1B681B6A019308BD4C02030017
:105DD00008B5024B1B685B68019308BD60020300B5
:105DE00008B5024B1B689B68019308BD6002030065
:105DF00008B5024B1B68DB68019308BD6002030015
:105E000008B5024B1B689B69019308BD6002030043
:105E100008B5024B1B68DB69019308BD60020300F3
:105E200008B5024B1B681B68019308BD20020300E4
:105E300008B5024B1B685B68019308BD2002030094
:105E400008B5024B1B685B69019308BD2002030083
:105E500008B5024B1B68DB6C019308BD20020300F0
:105E600008B5024B1B685B6D019308BD200203005F
:105E700008B5024B1B689B6D019308BD200203000F
:105E800008B5034B1B68D3F88830019308BD0000A8
:105E90002002030008B5034B1B68D3F8943001932C
:105EA00008BD00002002030008B5024B1B689B6878
:105EB000019308BD4402030008B5024B1B68DB6870
:105EC000019308BD4402030008B5024B1B685B69DF
:105ED000019308BD4402030008B5024B1B681B6A0E
:105EE000019308BD4402030008B5024B1B685B6ABE
:105EF000019308BD4402030008B5024B1B68DB6A2E
:105F0000019308BD4402030008B5024B1B681B6BDC
:105F1000019308BD4402030008B5024B1B689B6B4C
:105F2000019308BD4402030008B5024B1B68DB6BFC
:105F3000019308BD4402030008B5024B1B685B686F
:105F4000019308BD4002030008B5024B1B689B6823
:105F5000019308BD4002030008B5024B1B68DB68D3
:105F6000019308BD4002030008B5024B1B681B6982
:105F7000019308BD4002030008B5024B1B685B6932
:105F8000019308BD4002030008B5024B1B689B69E2
:105F9000019308BD4002030008B5024B1B68DB6992
:105FA000019308BD4002030008B5024B1B681B6A41
:105FB000019308BD4002030008B5024B1B681B6B30
:105FC000019308BD4002030008B5024B1B685B6BE0
:105FD000019308BD4002030008B5024B1B681B6C0F
:105FE000019308BD4002030008B5024B1B685B6CBF
:105FF000019308BD4002030008B5024B1B685B6DAE
:10600000019308BD4002030008B5024B1B689B6D5D
:10601000019308BD4002030008B5024B1B681B68D2
:10602000019308BD1C02030008B5024B1B685B68A6
:10603000019308BD1C02030008B5024B1B689B6856
:10604000019308BD1C02030008B5024B1B68DB6A04
:10605000019308BD1C02030008B5024B1B681B6BB3
:10606000019308BD1C02030008B5024B1B681B6CA2
:10607000019308BD1C02030008B5024B1B685B6C52
:10608000019308BD1C02030008B5024B1B68DB6CC2
:10609000019308BD1C0203000021FFF7D1BE38B5F3
:1060A000046805467CB16368013B63605BB92368A3
:1060B00020469B689847A368013BA3601BB92368EF
:1060C0002046DB689847284638BD10B583680446EB
:1060D0000BB901F09EF9C3689847A3681BB103226E
:1060E00021462046984720461021BDE81040FEF783
:1060F000B6BE10B58368044613B103220146984723
:10610000204610BD13B50B460246D0E900016C468F
:1061100084E8030093E8030082E8030094E80300A6
:1061200083E8030002B010BD024800230360FFF7BC
:1061300047BD00BF8CE6032070470020704710B5B4
:1061400010210446FEF78BFE204610BD08B5FFF770
:10615000F6FF08BD30B500224FF69C7402608480C3
:106160008D888C800C68858004600A6030BD10B515
:1061700004460068FFF758FF204610BD38B5C468D4
:10618000F4B12378022B03D104F10C00FFF7EFFFE9
:10619000656835B12846FFF7ACFF10212846FEF7A9
:1061A0005EFEA56835B12846FFF7A3FF10212846FB
:1061B000FEF755FE20461421BDE83840FEF74FBEDD
:1061C00038BD0B6803604B68436013B15A680132F5
:1061D0005A60704737B5044668460D46FFF7F1FF31
:1061E000009B019A23606260002301A80193009341
:1061F000FFF755FF35B1281DFFF751FF082128464D
:10620000FEF72DFE204603B030BD826810B50AB9F6
:1062100001F0FFF8BDE81040C368184708B50068F2
:1062200000F11001FFF7F1FF08BD826810B50AB94F
:1062300001F0EFF8BDE81040C368184708B50068E2
:1062400000F11001FFF7F1FF08BD000038B5002391
:106250000446036010200D46FEF7FDFD28B1012322
:10626000C0E90133024B0360C5602060204638BDA1
:1062700030780B0038B5002383608B6804460D46E8
:106280002BB102229847EB68E360AB68A36020461D
:1062900038BD0000F0B589B004686846FFF75AFFC2
:1062A0004FF00203D4E84F2F002A03D1C4E8413F46
:1062B0000029F7D125D104F10C0569462846FFF7DE
:1062C00049FFBFF35B8F01236370002004F10803D3
:1062D000BFF35B8F53E8006F43E80002002AF9D157
:1062E000BFF35B8F6EB1FFF7B3FD78B1294630463F
:1062F000FFF78BFF3046FFF7FCFE10213046FEF71C
:10630000AEFD6846FFF733FF09B0F0BD314602A885
:10631000FFF7B0FFE068B4F9105008B101F0E0F801
:1063200006901020ADF81C50FEF795FD0546E8B12B
:10633000002787601820FEF78EFD044688B10146CD
:10634000876002A8FFF7DEFE049BA268A360059B9E
:10635000049206A9E268E36004F110000592FFF7D9
:10636000F9FE084BEB60084B2C60AB6006A8FFF70A
:10637000FEFE02A8FFF7BDFE002229460348FFF7F4
:106380006FFDB7E71D620B00A1640B00CB600B0033
:106390002DE9F04F8BB005469DF850A00F46904672
:1063A0009946FFF791FD07AE834638BB4FF62E7333
:1063B000059005A93046ADF81830FFF7CBFE142044
:1063C000FEF749FD044648B1022303700123C0E9EA
:1063D00001BB437031460C30FFF7BCFE2846214616
:1063E00040F8044BFFF732FF3046FFF7C0FE05A828
:1063F000FFF7BDFE28460BB0BDE8F08F0C2300244C
:106400001420CDE908440793FEF725FD014618B195
:10641000C0E901440470447004A80391FFF716FF1B
:106420001E4B08930820FEF716FD044610B103A981
:10643000FFF7C7FE00965FFA8AF34A4641463846A0
:106440000994FFF749FDB8B9039B5B7803F0FF029D
:1064500093B94FF69C7305A903A80592ADF81830BF
:10646000FFF718FF05A8FFF782FE05A80999FFF7B7
:10647000B1FE06A8FFF713FE03A905A8FFF7A1FECA
:10648000059B069A2B606A60002306A80693059375
:10649000FFF705FE04A8FFF702FEABE765650B00FA
:1064A000012AF8B5054603D10B6803600020F8BD4A
:1064B000022A10D0032AF9D10468002CF6D004F186
:1064C0001000FFF754FE2046FFF713FE1821204668
:1064D000FEF7C5FCEAE718200E68FEF7BCFC044690
:1064E00050B13146FFF7C6FE3069B6F9147008B1F5
:1064F00000F0F6FF2061A7822C60D7E738B50023B3
:1065000083608B6804460D462BB102229847EB68E6
:10651000E360AB68A360204638BD012A70B504462D
:1065200003D10B680360002070BD022A0CD0032A3F
:10653000F9D10468002CF6D02046FFF7DAFD1421CB
:106540002046FEF78CFCEEE714200E68FEF783FC75
:10655000054620B13146FFF7D1FF337C2B7425600F
:10656000E1E70000F0B589B004460D4601A81146E8
:10657000FFF730FEA4B124B21DB1284600F0B0FFF1
:10658000054601A803A90395ADF81040FFF782FE68
:1065900003A8FFF7ECFD02A8FFF781FD09B0F0BDED
:1065A000019D0123D5E84F2F002A03D1C5E8413FC3
:1065B0000029F7D1EFD12B73BFF35B8F6B702B1DCD
:1065C000BFF35B8F53E8006F43E80042002AF9D124
:1065D000BFF35B8F002EDED02046FFF739FC074665
:1065E00060B105F10C013046FFF71FFE3046FFF7A2
:1065F00080FD10213046FEF732FCCCE7314603A87F
:10660000FFF77CFF2B7B8DF81C301020FEF723FC5E
:106610000546D0B187601420FEF71DFC044678B112
:106620008760014603A8FFF76DFD059BA268A36084
:10663000069B0592E268E3609DF81C300692237485
:10664000064BEB60064B2C60AB6003A8FFF751FDD7
:10665000002229460348FFF703FCC7E73D620B0011
:106660001B650B00CB600B00002240681146FFF752
:106670009BBC002240681146FFF7A6BC4068002280
:10668000FFF79ABC4068002281F00101FFF784BC4B
:10669000002340681A461946FFF776BC002340687D
:1066A0001A461946FFF768BC002240681146FFF7FA
:1066B0005BBC002240681146FFF746BC40680022E0
:1066C0000221FFF749BC002340681A46FFF734BC9B
:1066D000024B03225A60024A1A60704790E6032078
:1066E0004C780B007047F8B5064615460C468F18D7
:1066F000BC4206D0336814F8011B9B6830469847AB
:10670000F6E72846F8BD007C0022FFF7A1BA007C1E
:106710000021FFF7A5BA007C0021FFF7A9BA007C91
:106720000021FFF7ADBA007C0021FFF7B1BA10B528
:1067300014210446FEF793FB204610BD38B50446ED
:1067400015464FF47A730022C4E90123094B2174E2
:10675000084623602946FFF7A3FABF3008D16B69CA
:10676000DB0705D56868FFF75FFCE868FFF75CFCAE
:10677000204638BD90780B00007C0022FFF748BA15
:106780000023007C1A461946FFF74ABA7FB500225B
:106790001423CDE90122ADF804300B788DF80830D0
:1067A0004B680393CB680493007C0B7A059301A993
:1067B000FFF77EFA07B05DF804FB1FB5003B8DF8CC
:1067C00000104FF06401039118BF01236946019244
:1067D0008DF80830FFF7DAFF05B05DF804FB012300
:1067E000FFF7EBBF007C0022FFF722BAC9B2FFF728
:1067F000F9BF007C0022FFF723BA0121FFF7F9BFA0
:10680000704710B518210446FEF729FB204610BD3D
:10681000F0B5037D062B8DB00E4600F104074FF056
:10682000000412D000F1080515F8011D0A223046B7
:1068300000F077F9AF42044419D0002CF4D02E2197
:10684000304600F055F90444EEE72F236A463946F6
:106850000A208DF80040FFF733FA6846FEF7B8FAD1
:1068600033680246DB68694630469847044620464E
:106870000DB0F0BD10B5054B0446112240F8043BA5
:10688000002100F0F7FD204610BD00BFBC780B00D2
:106890000346074A10B543F8042B01F1100251F8E2
:1068A000044B43F8044B9142F9D10A781A7010BD99
:1068B000BC780B0010B59DF8084044EA032343EA76
:1068C000024242EA016104234160037510BD0000E9
:1068D00007B5064B0360CB7800938B784A7809782C
:1068E000FFF7E8FF03B05DF804FB00BFBC780B00C6
:1068F000014B024A1A60704798E60320C8780B00E3
:10690000002340681A46FFF717BB406800220221A7
:10691000FFF722BB002240681146FFF715BB00229B
:1069200040681146FFF720BB002340681A4619460D
:10693000FFF722BB002340681A461946FFF724BB25
:1069400040680021FFF748BB40680021FFF74CBBBF
:106950004068002281F00101FFF71EBB4068002261
:10696000FFF72ABB002240681146FFF72DBB00222B
:1069700040681146FFF718BB40680021FFF744BB91
:106980002DE9F04395B014460D460746FFF772FF18
:1069900000211C220DA8009100F06CFD40230C93F7
:1069A00020466B460CAA0021FFF79AF904460028FE
:1069B0004BD1024601216868FFF7D6FA02218046D2
:1069C00022466868FFF7D0FA009E81462146002ED5
:1069D0003BD0002939D17368022B03D00A2B11D088
:1069E000F669F4E7B8F1000FFAD0716906A804312E
:1069F00007ADFFF76DFF0FCD3C1D0FC42B68237053
:106A00004146EDE7B9F1000FEAD07469102201A800
:106A100000F030FD06238DF8143001AD04F10803B9
:106A20001834186859682A4603C20833A342154629
:106A3000F7D101A906A807ADFFF72AFF0FCD3C1D2E
:106A40000FC42B6823704946CAE70098FFF740F946
:106A5000384615B0BDE8F083033802289ABF024BD0
:106A600053F8200001487047CC780B009CE60320C7
:106A700008B500224068FFF7BFFABDE80840FFF7FD
:106A8000EBBF0000024B034A1A6000225A607047B5
:106A90009CE60320E0780B00F8B506460D468F18FB
:106AA0000024BD420CD0336815F8011B9B683046AA
:106AB0009847031E01DB1C44F3E7002C08BF1C466B
:106AC0002046F8BD13B50446084659B10191FEF7BA
:106AD0007FF923680199DB680246204602B0BDE8D1
:106AE0001040184702B010BD08B5FFF7EBFF08BD16
:106AF00003689B68184738B50D210546FFF7F8FF76
:106B00000A2104462846FFF7F3FF204438BD38B574
:106B10000546FFF7D7FF04462846FFF7ECFF204461
:106B200038BD30B58BB00023012A8DF8243098BFD2
:106B30000A2209AC0D46B1FBF2F101FB125303F03E
:106B4000FF03092B94BF30333733DBB2AA4204F87A
:106B5000013DEFD92146FFF7B5FF0BB030BD10B5B1
:106B60000446FFF74DF9844208D01CB1BDE810403F
:106B7000FFF736B9BDE81040FFF73AB910BD70B560
:106B800005460E461446FFF73BF950B144EA062489
:106B900044EA0540FFF71CF9BDE87040E720FFF725
:106BA00037B970BDC2B2C0F30721C0F30740FFF789
:106BB000E6BF0000014B00229A607047A4E6032064
:106BC00010B50446FFF70CF8E060236820465B69C7
:106BD0009847002808DAFFF703F8E368C01AA368AB
:106BE0009842F2D34FF0FF3010BD2DE9F041074637
:106BF0000C468E180D46B542A5EB040807D0384662
:106C0000FFF7DEFF031E02DB05F8013BF3E740461A
:106C1000BDE8F0812DE9F14F57EC106B80460C4632
:106C200010EE100A002200233946FDF727FE28B196
:106C300007F100431F462D2304F8013B00234FF0CA
:106C400001090A22D9B2884503D902FB09F90133A7
:106C5000F8E74846FDF736FB32463B46FDF79CFB1E
:106C600006460F46FDF72CFF8A4605468B46FDF784
:106C70005DFB02460B4630463946FDF7D5F9144B0D
:106C80000022FDF70FFE10B101354AF1000B4A4614
:106C90002846D3175946FDF7C7FE0123154621465E
:106CA0000A2200F070FAB8F1000F0ED02046FEF76D
:106CB0008FF82E23211823540A22434601312846F7
:106CC00001B0BDE8F04F00F05EBA01B0BDE8F08F52
:106CD0000000E03F10B504460068FFF7A5F9204624
:106CE00010BD10B50446006808B1FFF79DF90023F8
:106CF000C4E90133236010BD38B504460D46006871
:106D00000131FFF799F910B1C4E90005012038BD40
:106D100010B50368044623B143688B4201D30120B8
:106D200010BD2046FFF7E8FF0028F9D0A368002B2C
:106D3000F5D122681370F2E737B50D46114601927E
:106D40000446FFF7E5FF019A28B92046FFF7C9FF7F
:106D5000204603B030BDA2602946206800F062FBE7
:106D60002268A3680021D154F2E713B5044659B153
:106D700008460191FEF72CF8019902462046FFF7DC
:106D8000DBFF204602B010BDFFF7ABFFF9E770B59F
:106D900010EE106A8AB00D4600211D220446C0E99B
:106DA00000118160017302A8019100F063FB30467D
:106DB000FDF79AFAEDB241EC100B01A92846FFF756
:106DC00029FF01A92046FFF7D0FF20460AB070BD79
:106DD000054B02221A60054B054A9A600020C3E960
:106DE0000000FFF725B800BFC0E60320B4E603208B
:106DF0000000FFFF2DE9F041154ADFF86080D2E97D
:106E00000063801943EB0101124BD3E90067D8E915
:106E10000023861941EB0707BB4208BFB2428CB082
:106E200013D003A96846CDE90067FFF72DF9089B49
:106E3000094D03F26C7303AC08930FCC0FC50FCC54
:106E40000FC5C8E9006723682B600CB0BDE8F0816E
:106E5000F8E60320F0E60320C8E6032000E703205D
:106E600008B50020FFF750F828B1FFF72DF880F0A3
:106E70000100C0B208BD0120FCE70000FAEE087A6C
:106E8000B4EEE70AF1EE10FA08B511D4F2EE0C7A7E
:106E9000B4EEE70AF1EE10FA0ADCDFED067A60EEF6
:106EA000277A17EE900AFDF7D7FD034BC3E90001DF
:106EB00008BD00BF00006145F8E6032010B50020C2
:106EC000FEF796FE0446A0B9FEF7AAFF012810D1EE
:106ED0002046FEF7CDFF60B9FFF7C2FF10B9FEF7FD
:106EE000E3FFF9E7FFF7BCFFBDE810400020FEF725
:106EF0007FBE204610BD1FB5FFF7E0FF1022002126
:106F0000684600F0B7FA00216846FEF779FE00985F
:106F100005B05DF804FB000008B5FFF7ECFFC117F2
:106F2000FFF768FF014B986808BD00BFC8E6032063
:106F3000024B1A68024B1A60704700BFBCE5032081
:106F4000C4E6032070474174704708B5007CFEF723
:106F5000F7FE20EAE07008BD08B5007CFEF7D0FE21
:106F600020EAE07008BD08B5007CFEF7D9FE40EAD3
:106F7000E07008BD08B5007CFEF7CAFE40EAE0708C
:106F800008BD007CFEF7D4BE37B5457C04462DB164
:106F9000207C03B0BDE83040FEF7AABE007C019122
:106FA000FEF7CEFE00280199F2DC284603B030BD82
:106FB00010B514210446FDF752FF204610BD000015
:106FC00010B54FF47A730446084611460022C4E90E
:106FD0000123044B2360012320746374FEF7B8FE81
:106FE000204610BD40790B004174704770477047D0
:106FF00008B50021007CFEF7D3FE40EAE07008BD32
:1070000008B50121007CFEF7CBFE40EAE07008BD28
:1070100008B5007CFEF7BCFE20EAE07008BD08B5AC
:10702000007CFEF7ADFE20EAE07008BD13B5044613
:10703000007C0191FEF7ACFE0028019901DC607C28
:1070400020B1207CFEF7B4FE20EAE07002B010BD53
:10705000007CFEF7B5BE10B514210446FDF7FFFE17
:10706000204610BD10B54FF47A730446084600213F
:10707000C4E90113044B2360012320746374114697
:10708000FEF76EFE204610BD74790B00007C0022D6
:10709000FEF76EBE10B514220446002100F0EAF996
:1070A000204610BD10B50F4C88B003A8FFF7F2FFC3
:1070B0002178BFF35B8F11F001010FD120460191C0
:1070C000FDF7CFFE019948B103AA0748FFF7CAFFB1
:1070D0002046FDF7CBFE054800F09EF9024808B0B7
:1070E00010BD00BF08E703200CE70320ED6F0B0085
:1070F000002240681146FEF757BF00224068114643
:10710000FEF762BF40680022FEF756BF40680022CB
:1071100081F00101FEF740BF002340681A4619467E
:10712000FEF732BF002340681A461946FEF724BF17
:10713000002240681146FEF707BF40680022022186
:10714000FEF70ABF002340681A46FEF7F5BE0000AE
:10715000024B04225A60024A1A60704720E703205B
:10716000A8790B0010B50446FDF732FE013823184C
:107170002046834206D90278197800F8011B03F8EB
:107180000129F6E710BD70B50C46911E22291DD8C5
:10719000254630B9234430229D4210D205F8012BF8
:1071A000FAE7B0FBF2F602FB1600C1B2092894BF61
:1071B00030315731C9B205F8011B3046E9E70023E9
:1071C00020462B70FFF7CEFF204670BD0020FCE765
:1071D000014B1860704700BFC0E5032008B50B4B9A
:1071E00043B1FFF75FFF03681B699847002801DD83
:1071F000AFF30080064B43B100F0E2F803681B696F
:107200009847002801DDAFF3008008BD00000000B2
:107210000000000008B5FFF7E1FFFEF7E1FC014BBD
:10722000186008BD30E703200548064A064908B53E
:10723000121A00F0F7F8054B054A1A6008BD00BFA6
:1072400000F4032004F40320207B0B0000F403204F
:107250001E1C279A07B5002300931A466FF077018A
:10726000FEF718FE03B05DF804FB000007B5438885
:107270000A2B08D0502B0BD1094B1B684BB103B024
:107280005DF804EB1847FFF7E5FF03B05DF804FB7A
:10729000002300931A466FF07701FEF7FBFDF4E739
:1072A0002CE7032010B512480021FEF7E5FE114B34
:1072B0001A68114B9A42114B0CBF012200221A701E
:1072C00001D0FFF7B1FFFEF783FC044600F0DAF8C7
:1072D0000B4B13B12046AFF3008000210848FEF7A6
:1072E00023FEBDE8104007480021FEF7C9BD00BFDE
:1072F000D1710B0000F403201E1C279A28E70320FD
:10730000000000006D720B007047000038B50A4B9A
:1073100003600123044643610849202000F074F80B
:10732000202560600549A560284600F06DF8C4E995
:107330000305204638BD00BF18000100E4790B00AA
:1073400030B50E4D2978BFF35B8F11F0010487B083
:1073500011D12846FDF785FD68B16846FFF7D6FFD5
:107360006A4621460648FFF7E9F92846FDF77EFD03
:10737000044800F051F8024807B030BD34E703205C
:1073800038E7032009730B007047000038B5044646
:1073900014252A46002100F06DF825804025074974
:1073A00025812846258200F02FF804496060284690
:1073B00000F02AF8E060204638BD00BFE4790B00F9
:1073C00030B50E4D2978BFF35B8F11F0010487B003
:1073D00011D12846FDF745FD68B101A8FFF7D6FF9A
:1073E00001AA21460648FFF7EBFD2846FDF73EFDC2
:1073F000044800F011F8024807B030BD4CE7032004
:1074000050E7032089730B00FDF727BD08B5FEF791
:107410001BFE08B5FEF718FE002301461A46184663
:1074200000F07CB80A44914200F1FF3300D170476C
:1074300010B511F8014B03F8014F9142F9D110BD7D
:10744000884210B501EB020402D98442234607D8D2
:10745000431EA14208D011F8012B03F8012FF8E7D1
:10746000024401468A4200D110BD13F8014D02F8D2
:10747000014DF7E702440346934200D1704703F8F9
:10748000011BF9E738B5104B1D68AB6B0446B3B967
:107490001820FEF7C1FD0246A86320B90B4B0C482B
:1074A0004221FEF7E1FD0B490B4BC0E900130B4BEA
:1074B00083600B23838100210120C2E90401AB6BAF
:1074C00000221C615A6138BDC0E50320E5790B003C
:1074D000FC790B000E33CDAB34126DE6ECDE05000B
:1074E000024B0146186800F003B800BFC0E5032056
:1074F00037B5044608460D46FDF76AFC421C1146A6
:1075000020460192FEF7A8FD044618B1019A2946CB
:10751000FFF788FF204603B030BD00002DE9F84397
:10752000DFF8B8800646D8F800001F460D469146A1
:1075300000F056F8254B1C6834B9254C1C60254BCF
:1075400013B11B68C4F8883063681F2B07DDD8F8B7
:10755000000000F047F84FF0FF30BDE8F8834EB36D
:10756000D4F8880088B91C4B23B9D8F8000000F083
:1075700038F8F0E74FF48470FEF74EFD0028F4D0A1
:107580000023C0E94033C4F88800636840F82390C2
:1075900001229A4000EB8301D0F800311343C0F878
:1075A0000031022EC1F8807002BFD0F804311343BD
:1075B000C0F804316368D8F800005A1C02336260D6
:1075C00044F8235000F00EF80020C6E7F0E703204F
:1075D00064E703200000000019600B0024E603208C
:1075E0007047704770470000E14D0B001D4E0B00C7
:1075F000454E0B00494E0B0000000000496E6974B7
:1076000069616C697A696E672E2E2E0057692D4666
:107610006920636F6E6E65637465642E0057692D13
:10762000466920636F6E6E656374696F6E20666174
:10763000696C65642E204F7065726174696E672095
:107640006F66666C696E652E005061727469636C5A
:107650006520436C6F756420636F6E6E656374653F
:10766000642E005061727469636C6520436C6F75A1
:107670006420636F6E6E656374696F6E2066616906
:107680006C65642E204F7065726174696E67206F3F
:1076900066666C696E652E00686F6F6B2D72657320
:1076A000706F6E73652F7465737444617461004DFF
:1076B0004158333031303520776173206E6F74203C
:1076C000666F756E642E20506C656173652063680B
:1076D00065636B20776972696E672F706F7765726B
:1076E0002E0054696D6520666F72206E6577206D7F
:1076F0006561737572656D656E742E005265717586
:10770000657374696E67206D6561737572656D650B
:107710006E742E2E2E20466C617368696E6720622F
:107720006C7565204C45442E0056616C696420429E
:10773000504D3A20006E616E00696E66006F76668D
:10774000004D6561737572656D656E742074696D49
:10775000656F75742E2052657475726E696E672040
:10776000746F2049444C452E00766563746F723AFD
:107770003A5F4D5F7265616C6C6F635F696E7365D4
:10778000727400446174612073746F726564206C5C
:107790006F63616C6C7920286F66666C696E652911
:1077A0002E2E2E20466C617368696E672079656C99
:1077B0006C6F77204C45440053656E64696E67209A
:1077C0006461746120746F207365727665722E2E09
:1077D0002E00446174612073656E74207375636359
:1077E00065737366756C6C792E2E2E20466C6173F2
:1077F00068696E6720677265656E204C45442E008F
:107800004661696C656420746F2073656E642064E2
:107810006174612E2053746F72696E67206C6F63A0
:10782000616C6C792E000000000000000000000078
:1078300039610B003F610B007D610B004D610B0056
:107840003B610B000000000000000000C7660B0059
:10785000BD660B00B3660B00A9660B009D660B00AE
:1078600091660B0041690B0049690B0085660B00AE
:107870007D660B0073660B0069660B00716A0B0076
:1078800079690B0081690B00000000000000000016
:10789000E5660B002F670B0007670B00E7660B0020
:1078A0000F670B0017670B001F670B0027670B00A4
:1078B000EB6B0B00000000000000000011680B00E3
:1078C00001680B0003680B006170700090E60320F4
:1078D00020E703209CE603200000000000000000D9
:1078E00001690B000B690B0015690B001F690B0088
:1078F00029690B0035690B0041690B0049690B00D0
:1079000051690B005D690B0065690B006F690B0025
:10791000716A0B0079690B0081690B0025592D25CF
:107920006D2D25645425483A254D3A2553257A0076
:1079300061736374696D6500000000000000000061
:10794000456F0B00B16F0B00896F0B00996A0B003C
:10795000596F0B00756F0B00676F0B00836F0B0087
:10796000EB6B0B00476F0B004B6F0B000000000030
:1079700000000000EF6F0B0057700B002D700B0024
:10798000996A0B001F700B00F16F0B0001700B0068
:1079900051700B00EB6B0B0011700B00E96F0B00CB
:1079A000000000000000000045710B003B710B005F
:1079B00031710B00754E0B0025710B0019710B0016
:1079C00041690B0049690B000D710B0005710B003B
:1079D000FB700B00F1700B00716A0B0079690B00F2
:1079E00081690B00005245454E54206D616C6C6FEF
:1079F0006320737563636565646564002F746D70DF
:107A00002F6A656E6B696E732D4743432D31302DA0
:107A1000706970656C696E652D34385F3230323054
:107A2000313132345F313630363138303633392FF8
:107A30007372632F6E65776C69622F6E65776C6900
:107A4000622F6C6962632F7374646C69622F726158
:107A50006E642E6300000000B5560B0029610B0018
:107A6000D1660B00F1680B00856A0B00B56B0B004B
:0C7A7000D16D0B00316F0B0051710B0049
:087A7C0080D0FF7F0100000033
:107A8400040000001400000003000000474E5500ED
:107A9400BD22574E8C8DCEBCB1A460291DE9D2DF26
:047AA4001AA99A2A57
:107AA800180000000600000060EA000030790B00B2
:107AB800C4E50320000000000000000000000000F2
:107AC80000000000000000000000000000000000AE
:107AD800000000000000000000000000000000009E
:107AE800000000000000000000000000000000008E
:107AF800000000000000000000000000000000007E
:107B0800000000000000000000000000000000006D
:087B180000000000F4E7032067
:047B20000000000061
:107B2A0000000102030405060708090A0B0C0D0EE2
:107B3A000F101112131415161718191A1B1C1D1ED3
:047B4A001F202800D0
:047B4E00785634121F
:04000003B0004020E9
:00000001FF
